:020000003E2D93
:0C000600000000000000000000000800E6
:0E001200533083120313FD00FD0B0D28080070
:10002000243083120313FC00B530FD00FD0B1628AD
:0A003000FC0B162800000000080079
:10003A00710DF80DF90D7408F8027508031C750F97
:10004A00F902F00DF10D0F30FC00710DF80DF90DEC
:10005A007408701C3628F8027508031C750FF9021B
:10006A003B28F80775080318750FF907F00DF10D0D
:10007A00FC0B2A28701847287408F8077508031813
:08008A00750FF90700000800E2
:0E009200F201F101F001F801F3010030080065
:1000A0007B14FB1F5B28F201FA1FFF30F200F10006
:0A00B000F000FA0DF20CFF3008001A
:0600BA00FB15FF300800F9
:1000C000FB14FB1F6A28FF30F300F200F100F00080
:0800D000FA0DF20CFF300800EC
:0800D800FA1FF21300300800CA
:1000E00083120313D21B7628071077280714521B9C
:1000F0007B2887107C288714D21A80280711812832
:100100000715521A85288711862887153B188A28D3
:1001100087168B288712071603200712D2199228F8
:1001200007109328071452199728871098288714C6
:10013000D2189C2807119D2807155218A12887114D
:10014000A22887153B18A6288716A7288712071606
:10015000032007123B1CAE281020AF2809200800FE
:100160007B15FB1FBA280130F300F201F101F00109
:08017000FA0DF20CFF3008004B
:0E0178008312031334088A0033088200080043
:10018600831203133B104F08D20070203B14080063
:10019600DD28803083120313CF00F028C030CF0053
:1001A600F0289430CF00F028D430CF00F0288030EB
:1001B600CF00F028831203134F08013A0319CC2805
:1001C6004F08023A0319D1284F08033A0319D428D5
:1001D6004F08043A0319D728DA285003F0004F08CD
:1001E600F0077008CF003B147008D20070203B1057
:0A01F6005108D20070203B140800ED
:10020000A0017208031D15297108F2007008F100A1
:10021000F001A0157208031D15297108F200F10103
:10022000A01120167208031923292008F302031DC8
:10023000031C27290310F21B2B29F00DF10DF20DE1
:10024000F30B1B2927290130FC0049202E290230FD
:0E025000FC00B0202E290430FC006C200800B9
:10025E00831203137408003A031D3E297508003AF1
:10026E00031D3E29FF30F0007F30F10097298312E5
:10027E000313FD01F901F80171087004031900342C
:10028E0071087506FA00FA1BFD09FB01F51F5429CA
:10029E00F409F509F40A0319F50AF11F5B29F009AF
:1002AE00F109F00A0319F10A71087504FA00FA1B34
:1002BE0070291D207B188329FD1F0034F009F109D8
:1002CE00F00A0319F10AF809F909F80A0319F90AEB
:1002DE000034F51F7F29F11B7B297108F900700886
:1002EE00F800F101F0016329F101F001F00A003488
:1002FE00F109F009FB0A6029F80A0319F90A7408D2
:10030E007802031D632975087902031D6329F9011B
:10031E00F801F00A0319F10AF11F63290000FF34F6
:02032E000800C5
:1003300083120313FB017308031D77080319EF29C8
:1003400072087606FA007708F3077E30031CAC29A2
:10035000F3020318F229AF29F302031CF5297208EE
:10036000F8007108FC007008FD00F817F61703107C
:10037000F201F101F0011830A0007D1CC9297408B8
:10038000F00775080318750FF10776080318760F44
:10039000F207F20CF10CF00CF80CFC0CFD0C031045
:1003A000A00BBD29F21BD929F80DF00DF10DF20DAE
:1003B000F3037B1B701CEB29F81FEB29F00A0319D0
:1003C000F10A0319F20A031DEB29F20CF10CF00CEF
:1003D000F30A0319F229FA1FF2130030F72901304A
:1003E0004920F72902306020F7290430B0200000AE
:0203F000080003
:1003F200831203137408003A031D142A7508003A85
:10040200031D142A7608003A031D142A7708003ABD
:10041200031D142AFF30F000FF30F1007F30F2009C
:10042200FF30F300AF2A8312031377080319A32ABC
:1004320073080319A62A720876068039FA00F217A1
:10044200F617A0017208F8007108FC007008FD00A0
:100452007408FD027508031C750FFC027608031C64
:10046200760FF802F801FC01FD01031C3F2A03107C
:10047200F20CF10CF00CF80C0130A0007708F3023A
:10048200031C492A7E302007F3070318A92A4E2AA3
:100492007E302007F307031CAC2A1830FA07FD0D43
:1004A200FC0DF80DF00DF10DF20DA00D7408F00227
:1004B2007508031C750FF1027608031C760FF20211
:1004C200760DA004201C672A7D14722A7408F00796
:1004D20075080318750FF10776080318760AF207F4
:1004E2007D10FA031F307A05031D502A7B1B7D1CE9
:1004F200992A0310F00DF10DF20DA00D7408F0020F
:100502007508031C750FF1027608031C760FF202C0
:10051200760D20040139FD070318FC0A0319F80AB5
:10052200031D992AF80CFC0CFD0CF30A0319A92AE5
:10053200FA1FF8137808F2007C08F1007D08F00039
:100542000030AE2A01305D20AE2A02304920AE2AA8
:0E05520004306020AE2A0830B02000000800FF
:1005600083120313FB0173080319ED2A7208FA00C2
:10057000F2178E30F302F31FF02AF309F30A083062
:100580007302031CD32AF300F10D7208F100F2018B
:1005900008307302031CD32AF300F10DF101730834
:1005A000031D0310DB2A73080319DB2A0310F20C66
:1005B000F10CF30BD62A7B1B711CE52A031CE52AE0
:1005C000F10A0319F20AF21BFC2AFA1FFF2AF209A8
:1005D000F109F10A0319F20AFF2AF201F101FF2AD7
:1005E0007B14FB1F022BF201FA1F022BFF30F200DB
:1005F000F100FA0DF20C022B0130FC00042B00304C
:10060000FC00042BFF30FC00FC080319082B5020D1
:0A0610007108F0007208F100080004
:10061A0083120313FA017308031D7A147708031D62
:10062A00FA147A080319592B033A0319242B7A1856
:10063A00212BF61F572B552BF21F552B572B7208C0
:10064A008039FA00F21376088039F6137A0603190C
:10065A00322B7A080319552B572B77087302031983
:10066A00392B031C4D2B512B760872020319402B90
:10067A00031C4D2B512B750871020319472B031CC0
:10068A004D2B512B740870020319592B0318512B47
:10069A00FA080319572B552BFA080319552B572B10
:1006AA0003140800031008000314031508000800C7
:1006BA00831203134608F000F00D7010F00D70104D
:1006CA00013070049F002130FD00FD0B6A2B9F143E
:1006DA009F1C702B6D2B1E08F100F00183161E085B
:0806EA00F0040030F1040800E7
:1006F20083120313F401F501F601F7014608F00035
:100702004708F1004808F2004908F3000D230130C0
:1007120003180030F00070080319A82B4608F000F7
:100722004708F1004808F2004908F3000030F400DD
:100732000030F5008030F6007F30F7009821700815
:10074200C6007108C7007208C8007308C9000030EB
:10075200F4000030F5004830F6008530F700460816
:10076200F0004708F1004808F2004908F300F921B7
:10077200B0220A30F4000030F5002F217808F00092
:100782007908F1004A088400700880007108840A20
:1007920080000030F4000030F5002030F600823096
:1007A200F7004608F0004708F1004808F20049083F
:1007B200F300F921B0220A30F4000030F5002F21B5
:1007C2007808F0007908F1004B0884007008800076
:1007D2007108840A80004608F0004708F1004808C2
:1007E200F2004908F300B0220A30F4000030F500AC
:1007F2002F217808F0007908F1004C088400700875
:1008020080007108840A80004608F0004708F10061
:100812004808F2004908F3000030F4000030F50007
:100822004830F6008530F7009821B0226430F40099
:100832000030F5002F217808F0007908F1000A3025
:10084200F4000030F5002F214D088400700880006C
:100852007108840A80004608F0004708F100480841
:10086200F2004908F3000030F4000030F50048308F
:10087200F6008530F7009821B0226430F400003091
:10088200F5002F217808F0007908F1000A30F40011
:100892000030F5002F217808F0007908F1004E08A9
:0E08A2008400700880007108840A800008003D
:1008B0008030831203139F00803083169F0008004E
:1008C000403083120313D2007020C8014808073C4F
:1008D000031C7C2C48080E3EF00006300318013E35
:1008E000F1007008B3007108B400BC208A110A122C
:1008F000CF00C320C80A662C0230D2007020460800
:0C090000CF004708D000D101CB20080038
:10090C00982C803083120313C600AB2CC030C60069
:10091C00AB2C9430C600AB2CD430C600AB2C803042
:10092C00C600AB2C831203134608013A0319872C1B
:10093C004608023A03198C2C4608033A03198F2CEB
:10094C004608043A0319922C952C4703F0004608EC
:10095C00F0077008C6007008D20070203B10C90167
:10096C0049084807840000080319C42C49084807A3
:10097C0084000008CF00C320C90AB62C3B14080021
:10098C00831603130712871287110711871007109C
:10099C008312071287120710871007118711102076
:1009AC00102010200715871507160320071210209A
:1009BC000716032007121020071603200712102019
:1009CC0087110716032007121020071603200712A1
:1009DC00071107140716032007121020071087159C
:1009EC000716032007128711071603200712102081
:1009FC00071603200712871507160320071210206D
:100A0C00871107160320071207148714071587157B
:0C0A1C0007160320071210203B140800EE
:100A2800831203137008F8007108F000F101F20155
:100A3800F301FB01FC019630F300FA01F01F2A2DA7
:100A4800F809F009F80A0319F00AFA177008F10012
:0C0A58007808F000F801F201002108000D
:100A6400BC208A110A128000840AB30A0319B40A4A
:080A7400F003031D322D080000
:100A7C00543083120313A1006530A2006D30A30023
:100A8C007030A4006530A5007230A6006130A7005C
:100A9C007430A8007530A9007230AA006130AB0028
:100AAC00AC014330AD00AE012D30AF00B0012B30A6
:100ABC00B100B201831606158615031709148914A3
:100ACC00C6240130D20070200C30D20070200130CE
:100ADC00C6000330C7002130C800862458240630D5
:100AEC00FB001330FC00AD30FD00FD0B7B2DFC0B2F
:100AFC007B2DFB0B7B2D0000000008308312C60001
:100B0C005D2370088312C4007108C5000930C6004B
:100B1C005D23700883124402F0007108031C013E2F
:100B2C004502F10014259030F4003E30F5007A3087
:100B3C00F6007D30F70098217008BC007108BD00EC
:100B4C007208BE007308BF00F401F501F601F7014D
:100B5C000D23013003180030F00070080319BE2D6E
:100B6C000230C6000330C7002F30C8008624C52DC4
:100B7C000230C6000330C7003130C80086243C0860
:100B8C00C6003D08C7003E08C8003F08C9004230F7
:100B9C00CA004030CB003730CC003530CD00393076
:100BAC00CE0079230230CF000530D0003030420720
:100BBC00D100CB2030304007CF00C3203030370776
:100BCC00CF00C3202E30CF00C32030303507CF00EC
:100BDC00C32030303907CF00C3200230C6000C30A0
:100BEC00C70060240230C6000D30C7002D30C8008D
:100BFC0086241A30FB005E30FC006E30FD00FD0BCD
:100C0C00052EFC0B052EFB0B052E0000832D0D2E47
:100C1C000634093406340034003400340034003413
:04400E00F22F000786
:00000001FF
