:020000003B299A
:0E000600533083120313FD00FD0B0728080082
:10001400243083120313FC00B530FD00FD0B1028BF
:0A002400FC0B10280000000008008B
:0C002E00000000000000000000000800BE
:10003A0083120313B21B2328071024280714321B28
:10004A002828871029288714B21A2D2807112E2844
:10005A000715321A32288711332887152A183728A4
:10006A00871638288712071617200712B2193F2851
:10007A000710402807143219442887104528871486
:10008A00B218492807114A28071532184E2887112D
:10009A004F2887152A1853288716542887120716B7
:1000AA00172007122A1C5B280A205C280320080054
:0E00BA00831203132C088A002B088200080012
:1000C800831203132A103108B2001D202A140800D5
:1000D8007E28803083120313AD009128C030AD0014
:1000E80091289430AD009128D430AD00912880300B
:1000F800AD009128831203132D08013A03196D28C6
:100108002D08023A031972282D08033A0319752895
:100118002D08043A031978287B282E03F0002D08AF
:10012800F0077008AD007008B2001D202A10B00159
:1001380030082F07840000080319AA2830082F0761
:1001480084000008B1006420B00A9C282A14080022
:10015800BE28803083120313AD00D128C030AD0013
:10016800D1289430AD00D128D430AD00D1288030CA
:10017800AD00D128831203132D08013A0319AD28C5
:100188002D08023A0319B2282D08033A0319B52895
:100198002D08043A0319B828BB282E03F0002D08AF
:1001A800F0077008AD002A147008B2001D202A104C
:0A01B8002F08B2001D202A140800D1
:1001C2005D208A110A128000840AAB0A0319AC0A64
:0801D200F003031DE128080001
:1001DA008316031307128712871107118710071056
:1001EA0083120712871207108710071187110A2036
:1001FA000A200A20071587150716172007120A2052
:10020A000716172007120A200716172007120A20B6
:10021A0087110716172007120A2007161720071238
:10022A00071107140716172007120A200710871547
:10023A0007161720071287110716172007120A2018
:10024A0007161720071287150716172007120A2004
:10025A008711071617200712071487140715871521
:0C026A000716172007120A202A140800AB
:100276004F3083120313A0004C30A1004130A2007E
:100286002030A3004D30A4005530A5004E30A60006
:100296004430A7004F30A800A901ED200130B2007C
:1002A6001D200C30B2001D200130AD000430AE0020
:1002B6004F30AF00AC200130AD000530AE004C3001
:1002C600AF00AC200130AD000630AE004130AF00CB
:1002D600AC200130AD000730AE002030AF00AC20BE
:1002E6000130AD000830AE004D30AF00AC2001301B
:1002F600AD000930AE005530AF00AC200130AD0086
:100306000A30AE004E30AF00AC200130AD000B30ED
:10031600AE004430AF00AC200130AD000C30AE0072
:100326004F30AF00AC201A30FB005E30FC006E3060
:10033600FD00FD0B9C29FC0B9C29FB0B9C29000056
:100346000130B2001D200C30B2001D201A30FB0017
:100356005E30FC006E30FD00FD0BAF29FC0BAF29B3
:10036600FB0BAF2900000130AD000430AE00203099
:10037600AF006C201A30FB005E30FC006E30FD00D2
:10038600FD0BC329FC0BC329FB0BC329000001305D
:10039600B2001D200C30B2001D201A30FB005E306A
:1003A600FC006E30FD00FD0BD629FC0BD629FB0B9D
:0803B600D62900005729DE29B9
:04400E00F22F000786
:00000001FF
